S017000042656C6C4465746563746F724475652E7372656336
S2140800004031072049150800451508004515080021
S21408001045150800451508004515080000000000AD
S2140800200000000000000000000000004515080061
S214080030451508000000000045150800451508008D
S214080040451508004515080045150800451508001B
S214080050451508004515080045150800451508000B
S214080060451508004515080000000000ED130800B7
S21408007001140800151408002914080000000000E0
S214080080000000004515080045150800451508003D
S21408009045150800451508004515080045150800CB
S2140800A0451508000000000045150800451508001D
S2140800B045150800451508004515080045150800AB
S2140800C0451508004515080045150800451508009B
S2140800D045150800C5010720451508004515080000
S2140800E0451508004515080045150800451508007B
S2140800F04515080010B5054C237833B9044B13B1E1
S2140801000448AFF300800123237010BDB00E07200B
S21408011000000000546608000C4B43B10C4810B5AC
S2140801200C49AFF300800C48036823B910BD0A4891
S214080130036833B97047094B002BF7D0BDE8104069
S2140801401847064B002BF5D0184700BF00000000E4
S21408015054660800B40E0720546608000000000025
S21408016030B4012404600024446040F20225C0F83C
S2140801702051C0F80441C0F8144145685200B1FB4C
S214080180F2F2013A120292B22B431A434260204618
S21408019030BC7047436823F0100343604368194334
S2140801A0416070474368D201D2B219430A4342609D
S2140801B0704710B44468090601F0706121430A4389
S2140801C0190701F040511143416010BC70470223E3
S2140801D003607047012303FA01F1016170474FF687
S2140801E0FF734361704741627047816270470068D9
S2140801F0C0F303207047000008B5120202F47062CC
S2140802001143024B9847002008BD00BF790007201D
S21408021008B50368090201F4706123F47063194392
S214080220014B984708BD00BF79000720A1F10E03CF
S214080230012B02D84FF0FF30704710B582B0EFF3AD
S2140802401083B3FA83F35B09019372B6BFF35F8F2B
S21408025000240B4B1C70019C120222F07F4222F0F5
S214080260FF0242F0B442C9B21143064B98472CB17C
S2140802700122034B1A70BFF35F8F62B602B010BD3F
S214080280F00407207D000720002303604360C36056
S214080290036143618361C361036283608362692388
S2140802A0C36240F2B6230363D2234363BD2383634A
S2140802B07047000038B504460D4600230360C16049
S2140802C08800084B98476060002D07DD0023194614
S2140802D0626842F8231001339D42F9D10023A360D7
S2140802E038BD00BF7D1A080030B40568446854F865
S2140802F02530826801FB012203FB1323836044F840
S21408030025100368C268013A93420CBF00230133E4
S2140803100360806830BC704700230360C368002B06
S21408032008DD00231946426842F823100133C268E4
S2140803309A42F8DC002383607047000008B5262040
S214080340154B9847154B00221A625A6822F00E027F
S21408035042F003025A605A6822F010025A605A683D
S21408036042F480125A6059680D4A0A4042F04072B8
S21408037042F480725A605A6822F020025A605A681C
S21408038042F040025A600F229A6201221A61022144
S21408039019611A6208BD00BF2515080000800C40C8
S2140803A0FF00DFC0014B1862704700BF00800C409A
S2140803B030B4B1F5402F0DD3A1F54024C4F30F2473
S2140803C0C9B2084D00B1056002B1148003B11980A6
S2140803D030BC7047A1F50024C4F30F24C9B2024DFF
S2140803E0F0E700BF000C0E40000A0E4008B50622D3
S2140803F04FF080710148024B984708BD000C0E402C
S214080400F90108000048704704000C0030B583B0B6
S21408041020F47F5020F03F006FEA91346FEA84346E
S21408042002B1106003B11C6000230DF10202014600
S21408043001A8114DA84700236A4621461846A84732
S214080440BDF80220BDF80030934213D908250B4C9E
S21408045029460198A047014648B9BDF8022040320F
S21408046092B2ADF80220BDF800309342F0D80846A4
S21408047003B030BD0021FAE7B10308002D020800DA
S21408048030B583B020F47F5020F03F006FEA9134F7
S2140804906FEA843402B1106003B11C6000230DF1CA
S2140804A00202014601A8114DA84700236A462146C4
S2140804B01846A847BDF80220BDF80030934213D965
S2140804C009250B4C29460198A047014648B9BDF8AE
S2140804D00220403292B2ADF80220BDF800309342B6
S2140804E0F0D8084603B030BD0021FAE7B10308008B
S2140804F02D0208002DE9F04F87B00191924602932D
S21408050004AB0DF11202014605A8314CA047059828
S214080510304B98470390062105982F4B9847BAF119
S214080520000F4DD0DFF8B890DFF8B8B009F1FC0539
S21408053015E0BDF8122001210598284B9847002899
S21408054043D1019B3B440193BDF812300133ADF80B
S21408055012300023ADF81030BAEB070A30D0BDF8D9
S2140805601060C6F580784746D04528BF5746BDF880
S214080570124004F540642402324621464846D847CD
S2140805803A46019909EB0600D847F019A8EB070286
S214080590311992B239444844D847A9F10403043CB7
S2140805A053F8042F44F8042FAB42F9D1029B002BD2
S2140805B0BFD0BDF8122003210598084B9847BEE720
S2140805C003990598044B9847002007B0BDE8F08FBC
S2140805D0B1030800EF010800110208002D02080008
S2140805E0CC0E0720D11F080038B504461248134B16
S2140805F0984700231A4612491248134DA84770B95F
S2140806000123042221460F48104CA04758B900235E
S2140806101A460B490B480E4CA04740B938BD0D4842
S214080620064B9847ECE70C48044B9847EFE70B480F
S214080630024B9847F2E700BFDC6208006106080034
S21408064003000C0004000C0081040800F5040800F0
S2140806500D040800F0620800FC6208000863080041
S2140806607047000000B583B000F01F0040F020007F
S214080670ADF80400ADF80610064A022101A8064B9C
S214080680984710B103B05DF804FB0448044B98473C
S214080690F8E700BFCC0F0720310E08007463080087
S2140806A06106080030B585B000F01F0040F0200055
S2140806B0ADF80400151E0ADD0B460DF1060201EB27
S2140806C0450433F8020B22F8020BA342F9D1064A76
S2140806D0691C01A8054B984708B105B030BD044809
S2140806E0044B9847F9E700BFCC0F0720310E0800E7
S2140806F06C6308006106080030B58BB004461E22FD
S214080700002168460D4B984704F01F03ADF82030CB
S2140807100023ADF822300DF12603094A022108A865
S214080720084DA847BDF82630224607496846074CB4
S214080730A0479DF826000BB030BD00BFBD200800BE
S214080740CC0F0720ED0E080054630800952108001A
S21408075070B590B005460C461E22002105A8134B1E
S214080760984705F01F03ADF834300023ADF836304F
S214080770ADF83830ADF83A30ADF83C30ADF83E302C
S21408078023460B4A06210DA80A4EB047238822891D
S2140807900392E2880292A2880192628800922A4610
S2140807A0054905A8054CA04710B070BDBD20080037
S2140807B0CC0F0720ED0E08003463080095210800CA
S2140807C008B55520014B984708BD00BFFB11080027
S2140807D008B55520014B984708BD00BF15120800FC
S2140807E010B50020064CA04740F00201C9B2002010
S2140807F0044B98470020A047FF23013BFDD110BDBE
S214080800F90608006506080010B5044606200C4BD5
S214080810984700F0FB00032C0BD0022C0CD0042CBD
S21408082014BF40F0020140F006010620054B984729
S21408083010BD40F00601F8E740F00601F5E700BFF6
S214080840F90608006506080010B504460620094B98
S214080850984700F0D701022C08D0012C08BF41F0B9
S21408086008010620044B9847002010BD41F02001DF
S214080870F7E700BFF90608006506080010B5044645
S2140808800020074B984700F0F3012CB1012C0CBF51
S21408089041F0080141F00C010020024B984710BDBA
S2140808A0F90608006506080008B501460520034B4A
S2140808B098470520024B984708BD00BF6506080004
S2140808C0F906080000B583B002A8E22320F8043D24
S2140808D0054A0121054B984710B103B05DF804FBA3
S2140808E00348044B9847F8E7CC0F0720310E08005A
S2140808F0746308006106080000B583B002A8E12307
S21408090020F8043D054A0121054B984710B103B06D
S2140809105DF804FB0348044B9847F8E7CC0F07201C
S214080920310E0800746308006106080008B5052241
S21408093002491020024B984708BD00BF28630800EC
S214080940A506080010B584B0002301930293ADF8FD
S2140809500C301A4B9847FF23013BFDD14021042059
S214080960174B98470320174B98470220164B984773
S214080970F8B10020154B984700211C20104CA047C2
S21408098070210720A0474C20114B984700210120D2
S214080990A047104B9847104B9847104B9847104B5A
S2140809A09847104B984701A910200F4B984704B05A
S2140809B010BD0E480E4B9847DBE700BFD10708006E
S2140809C06506080009080800490808007D080800A8
S2140809D0A9080800C5080800F90808002D09080035
S2140809E0E1070800C107080051070800146308005B
S2140809F06106080010B582B00446702107200E4B29
S214080A009847A023ADF80430ADF806400A200B4BF3
S214080A1098470B4A022101A80A4B984738B10A2082
S214080A20064B98470848094B984702B010BD084837
S214080A30064B9847F3E700BF65060800291008002C
S214080A40CC0F0720310E08001C630800610608005A
S214080A5074630800436823F47023436043680904FA
S214080A6001F47021194341607047436823F07F43BF
S214080A704360436843EA01614160704710B443F637
S214080A809923046914F0010F03D1013BF9D1012021
S214080A9009E08368406810F0020F1CBFC3F30340E8
S214080AA010700B80002010BC704730B443F69924B1
S214080AB0056915F0020F03D1013CF9D101200CE0BD
S214080AC0446814F0020F06D0120402F47022114390
S214080AD00BB141F08071C160002030BC704732B95C
S214080AE000EB8100036B23F001030363704700EB00
S214080AF08100036B43F001030363704732B900EBD0
S214080B008100036B23F002030363704700EB810048
S214080B10036B43F0020303637047042A03D06AB1E9
S214080B20082A16D0704700EB8100036B23F00803F1
S214080B300363036B43F004030363704700EB810011
S214080B40036B23F008030363036B23F004030363B8
S214080B50704700EB8100036B43F008030363E1E78B
S214080B6000EB81010B6B23F0F0030B630B6B1A434E
S214080B700A63704772B110B4144600EB81010B6B20
S214080B8023F47F430B630A6B42EA04220A630020BD
S214080B9010BC70474FF0FF30704710B400EB81016F
S214080BA0086B80B208630C6B44EA036343EA0243AB
S214080BB00B6310BC7047000019B9044BC0F8E4304A
S214080BC07047034BC0F8E430704700BF00495053E5
S214080BD00149505310B489014318022444504FF079
S214080BE0FF319962196A5A6010BC7047890105235B
S214080BF043507047890102234350704719B9044B84
S214080C00C0F8E4307047034BC0F8E430704700BFC4
S214080C10004D4954014D495470B52520214B98473D
S214080C20214C4FF4A023214A21492046214DA847AC
S214080C3032230022142120461F4DA84700220321F4
S214080C4020461E4B984720461D4B98474FF0FF31CD
S214080C5020461C4B9847002120461B4B98470126E8
S214080C60C4F82061194AC4F800210323C4F80431E3
S214080C70C4F81021C4F8143100212046144DA847A2
S214080C8031462046A84702212046A8474FF0006173
S214080C902046104B984720220F4B5A6020460F4B91
S214080CA0984770BD2515080000000C4080DE8002BD
S214080CB0007A030A61010800B3010800A5010800CC
S214080CC0DF010800EB0108009501080080100720E6
S214080CD0D5010800E701080000E100E0CF010800A0
S214080CE01A4B5A6842F000725A605A6942F000720B
S214080CF05A615A6E42F000725A665A6842F080622A
S214080D005A601A6942F080621A611A6F22F080628D
S214080D101A675A6842F000625A601A6942F000621E
S214080D201A611A6F22F000621A675A6842F08052F7
S214080D305A601A6942F080521A611A6F22F080527D
S214080D401A675A6E42F080525A667047000E0E4076
S214080D5038B518202A4B98472A4C002120462A4B9B
S214080D6098472A4B9847802323604FF6FF7300BFA7
S214080D70013BFCD1234C02232360636843F0010344
S214080D806360636843F010036360636823F080035E
S214080D9063600E2120461E4B9847636843F00203A3
S214080DA06360636823F00403636006212046194BDA
S214080DB09847002211462046174B984701220021E3
S214080DC02046164B9847152200212046144B984774
S214080DD0002211462046134B984701230A22002179
S214080DE02046114DA8470822002120460F4B984759
S214080DF000236361012121602046034B984738BDD4
S214080E002515080000800040B90B0800E10C080012
S214080E10550A08006B0A0800DF0A0800FD0A0800E1
S214080E20750B0800610B08009B0B08001B0B0800DD
S214080E302DE9F04F85B0824689460192284B1B69FA
S214080E4013F0010F2BD1B9F1010F35DD09F1FF338E
S214080E50002B13DDAAF1020598460024204E214FE8
S214080E60DFF884B000231A4635F8021F3046B84724
S214080E70002833D1D4B101344445F3D109F10049EF
S214080E8009F1FF39012300223AF819101448154CC5
S214080E90A047B0FA80F0400905B0BDE8F08F0DF124
S214080EA00F0201990E48104B9847CCE70DF10F0238
S214080EB001993046D847DEE701230022BAF8001029
S214080EC00748084CA04708B10020E5E70DF10F02D7
S214080ED001990348044B98470120DDE70020DBE72B
S214080EE000800040AB0A08007D0A08002DE9F04F94
S214080EF087B001908B46039202932A4B1B6913F026
S214080F00010F32D10BF1FF33002B1DDD019B9E1E16
S214080F10029B9D1E0BF1FF3A0024224FDFF88880C3
S214080F20DFF8889000231A4636F8021F3846C0476E
S214080F30002832D104B30DF1170229463846C847AF
S214080F40013402355445EDD10BF1004B0BF1FF3B54
S214080F504FEA4B0401230022019931F81B1011486F
S214080F60114DA84770B1002018E00DF1170203993B
S214080F700C480E4B9847C5E70DF1170203993846FB
S214080F80C847DDE7A11E0DF11702029B0B44194660
S214080F900448064B9847012000E0002007B0BDE84B
S214080FA0F08F00BF00800040AB0A08007D0A0800EA
S214080FB038B51B20144CA0471C20A047134C002112
S214080FC02046134B9847134A136843F00073136080
S214080FD06C3A136843F0007313600F4A00212046EA
S214080FE00E4DA847032201212046A847D223E361D5
S214080FF0692363614FF00062094BC3F88020002123
S2140810002046084B984738BD2515080000000840BC
S214081010FD0B080070100E4001C00900D50B080033
S21408102000E100E0ED0B080010B504460121084871
S214081030084B98474FF4247000FB04F0044A136DDD
S2140810408342FCD301210248034B984710BD00BFDA
S21408105000000840ED0B0800F50B080010B50E4818
S2140810600E4B98473E2100200D4B98470D4CA04745
S2140810700028FCD00C4B98470C4A0D4B9A620D4C36
S214081080A0470028FCD010200B4B98470B4B9847DE
S2140810900148024B984710BD00BD01053D010720D9
S2140810A0A1140800F514080005150800013F0D20D6
S2140810B000060E40151508003D140800E115080046
S2140810C010B54FF40042164B5A600B20154CA0473B
S2140810D00C20A0470D20A0470E20A0474FF06051D7
S2140810E03B20114CA0474FF060515520A0474FF0C9
S2140810F060515620A0470D496820A0470C495C203F
S214081100A0470C4A4FF440710B480C4B98474FF0D9
S21408111000612B20A0474FF000612A20A04710BD91
S214081120501A0E40251508003112080079000028CC
S2140811300100002801000008000E0E4001130800F8
S2140811404264B1F1805F16D00BD849B1B1F1006F97
S21408115005D1036F016F0B4023EA02030367426061
S2140811607047B1F1405FFBD0B1F1605FF8D0B1F1E4
S214081170205FF4D17047036F13430367EFE74164BA
S21408118012F0010F14BF4166016612F00A0F14BF71
S2140811900162416212F0020F07D112F0080F18BF61
S2140811A0C0F88410416101607047C0F88010F9E704
S2140811B010B4019C416444B9016643B1016542B963
S2140811C041630161016010BC70474166F5E74165FF
S2140811D0F5E70163F5E7C06C7047806C7047430914
S2140811E003F5001303F207735B02DB6B00F01F00C6
S2140811F023FA00F000F001007047430903F50013D6
S21408120003F207735B0200F01F00012202FA00F0E7
S21408121018637047430903F5001303F207735B026C
S21408122000F01F00012202FA00F058637047000021
S21408123070B582B00D46430903F5001303F2077331
S2140812405C0201F0F043B3F1205F31D016D8B3F159
S214081250006F1BD0B3F1805F16D100F01F00012687
S214081260864032464FF080512046224B984715F06C
S214081270010F14BF66662666012017E0B3F1405FCB
S21408128021D0B3F1605F1ED000200FE000F01F00F1
S2140812900126864032464FF000612046154B984797
S2140812A015F0010F14BF66662666012002B070BDF1
S2140812B000F01F0101262A4606FA01F120460E4BC9
S2140812C098473046F2E705F0605200F01F01012605
S2140812D005EA06030093C5F38003B2F1605F14BF06
S2140812E00022012206FA01F12046044CA0473046A7
S2140812F0DCE700BF411108007F110800B1110800A3
S21408130070B582B005460E46144602F0F043B3F1B7
S214081310205F27D011D8B3F1006F16D0B3F1805FE5
S21408132011D10A464FF08051194B984714F0010F17
S21408133014BF6E662E66012012E0B3F1405F15D02A
S214081340B3F1605F12D000200AE00A464FF0006151
S2140813500F4B984714F0010F14BF6E662E660120D7
S21408136002B070BD0B4B98470120F9E704F06052B5
S21408137004F001030093C4F38003B2F1605F14BF66
S2140813800022012231462846034CA0470120E7E701
S214081390411108007F110800B11108002DE9F0413D
S2140813A0044688460E4B9847054620460D4B9847F8
S2140813B0054013D00C4C04F1600603E0B4420DD08F
S2140813C010345DB120684045F8D161682942F5D0EF
S2140813D0E3689847636825EA0305EFE7BDE8F08108
S2140813E0D7110800DB110800D00F072008B50B211D
S2140813F00148024B984708BD000E0E409D13080092
S21408140008B50C210148024B984708BD00100E404D
S2140814109D13080008B50D210148024B984708BDE2
S21408142000120E409D13080008B50E210148024B15
S214081430984708BD00140E409D130800174A136B02
S21408144023F0700318431063936E13F0080F0AD145
S2140814504FF4006311498A6E12F0080F03D1013B5E
S214081460F9D1012070470D4A136B23F0030343F0AC
S21408147002031363936E13F0080F0AD14FF4006348
S21408148006498A6E12F0080F05D1013BF9D10120F2
S2140814907047002070470020704700BF00060E40C7
S2140814A0C8B9114A136A090289B223F45C1323F0F7
S2140814B0030343F45C1343F001030B431362936E78
S2140814C013F0010FFBD0084A136A43F09B7343F4EA
S2140814D080331362704704490B6A044A1A40044B67
S2140814E013430B62704700BF00060E40FCFFC8FEA1
S2140814F002003701024B986E00F48030704700BF38
S21408150000060E404FF00052014B9A62704700BF2B
S21408151000060E40024B986E00F00200704700BFAF
S21408152000060E4000F07F00054BC3F80C01D3F808
S2140815300C2142F01022C3F80C210020704700BF8F
S21408154000060E40FEE7000008B51C4B1C4A9A42EF
S21408155010D01C4B194A9A420CD2013B9B1A23F016
S214081560030304331344164951F8040B42F8040BDA
S2140815709A42F9D1144B154A9A420AD2013B9B1A51
S21408158023F0030304331344002142F8041B934258
S214081590FBD10F4B23F0604222F07F020D498A6090
S2140815A003F16043B3F5801F03D28B6843F0005302
S2140815B08B60094B9847094B9847FEE700000720C1
S2140815C054660800B00E072040110720B00E07200A
S2140815D00000080000ED00E02D1A08008517080036
S2140815E03D4B1B6B03F00303032B0ED8DFE803F019
S2140815F0021C3838394B5B6913F0800F14BF4FF460
S21408160000424FF4FA42364B1A60334B1B6B03F01A
S2140816107003702B57D0304B1A6B3149C2F3021245
S2140816200B68D3400B6070472B4B1B6A13F0807F08
S21408163003D02C4A2A4B1A60E7E72B4A284B1A6035
S214081640254B1B6A03F07003102B05D0202BDCD12A
S214081650244A234B1A60D8E7244A214B1A60D4E759
S2140816601D4B1B6A13F0807F0CD01E4A1C4B1A6059
S214081670194B1B6B03F00303022B16D01C4A184B9E
S2140816801A60C2E7184A164B1A60134B1B6A03F017
S2140816907003102B05D0202BEAD1124A104B1A6083
S2140816A0E6E7124A0E4B1A60E2E70B4A916A926A1C
S2140816B00B48C1F30A41036801FB0333D2B2B3FBFC
S2140816C0F2F30360A1E7064A13680A49A1FB03136D
S2140816D05B081360704700BF00060E40101A0E40E5
S2140816E0F4040720001BB70000093D0000127A002A
S2140816F0001C4E0EABAAAAAA0A4B1B6853B1094B8C
S2140817001B681A180849914208DB1046054A1060FB
S21408171018467047054A034B1A60F0E74FF0FF304B
S214081720704700BF40100720FC7F08204031072084
S21408173008B53A20044B984720B101280CBF012071
S214081740022008BD002008BDDF11080000B585B0DE
S2140817500622074B1A60074B1B6804A840F80C3D86
S214081760054B98470548064B984705B05DF804FBB7
S214081770F804072000050720E90508007C63080030
S214081780610608002DE9F843814B9847814E824D43
S21408179032464FF080612846804CA0474FF04052B2
S2140817A002217F48A0474FF040524FF400112846C8
S2140817B0A047A5F500754FF0405280212846A0475F
S2140817C032464FF400412846A047764B98475620A5
S2140817D0754CA0476120A0473520A0470720A047A2
S2140817E07248734B98474FF480617248724CA04712
S2140817F040F6B8317148A047714B9847714B9847E7
S214081800714B9847714B9847FF23013BFDD1002049
S2140818106F4B984756206F4CA0476120A04735204D
S214081820A0474FF47A706C4B984756205E4CA047FA
S2140818306120A0473520A047684B9847C0B2684B40
S2140818401870684B187038B1674B9847674B9847BD
S214081850634D674F604E48E0664B98470268664B94
S2140818601A60F1E7654B98472A785E4B1A702B7812
S21408187063B1012B10D161204B4B98474FF0FF32D4
S2140818805F4B1A6008E006233B60EDE75A4B1B687F
S21408189003F500235A4A13603B68052B4FF0610096
S2140818A00CBF4C4B404B9847564B1B68C3B10022A5
S2140818B0544B1A602B78002B30D0012B43D03B4872
S2140818C03B4B98473B48504B984706233B600022C3
S2140818D04E4B1A601420B04701214D484D4B98478F
S2140818E02B78012B4BD06420B0474B4B5A884B4B78
S2140818F01A603A4B9847C0B228700228CCD0394BA9
S2140819001B788342B3D04648464B98472B78002B23
S214081910A8D0012BB7D0394B9847A5E70A244FF033
S2140819201409DFF8AC804846B0470120C047013CA0
S214081930F9D15620274B98474FF4FA70B0475620EF
S214081940194B9847BBE75620224B98472A4B1B68EB
S214081950354A126803F50031914203D203F5C023D5
S2140819609A4208D340F6B830B04756200E4CA047E7
S2140819703520A047A3E73520164B9847F2E7274BB4
S2140819801B6803EB43039B011B4A1360ABE700BFCE
S2140819905D1008000800002800100E40011308001B
S2140819A000140E40C110080015120800CC100720BD
S2140819B0890208008C100720B502080008110720C5
S2140819C0B10F0800510D0800ED030800450908008E
S2140819D0F5090800FB11080029100800311708004F
S2140819E0B810072088100720190C08003D030800C7
S2140819F0F804072005040800000507204D1708000E
S214081A00FC0407204410072019030800C01007200C
S214081A1000000C40E701080080100720AC100720E3
S214081A208C63080061060800BC10072070B50F4ECE
S214081A300F4D761BB61018BF002405D0013455F894
S214081A40043B9847A642F9D10A4E0B4D04F0ECFD2C
S214081A50761BB61018BF002406D0013455F8043B90
S214081A609847A642F9D170BD70BD00BF346608001D
S214081A70346608003C66080034660800024B0146D7
S214081A80186800F003B800BF040507202DE9F04FDA
S214081A9001F10B06162E83B0054640F29E8036F0FE
S214081AA0070600F1BD80B14200F2BA8000F054FB90
S214081AB0B6F5FC7FC0F08582730A00F0B880042B68
S214081AC000F26C81B30903F1390003F1380EC10046
S214081AD0B84F39444C680839A14206D10CE0002AB0
S214081AE080F2AB80E468A14206D0636823F0030363
S214081AF09A1B0F2AF3DD70463C69DFF8CCE2744582
S214081B0000F09E81636823F003039A1B0F2A00F3F4
S214081B108381002AC7F814E0C7F810E080F29180A5
S214081B20B3F5007F80F054810122DB0879684FEA1C
S214081B30A30C134457F8338002FA0CF207EBC30CD5
S214081B400A43ACF10801E160C4F808807A6047F8F7
S214081B503340C8F80C40012483109C4094427DD83A
S214081B60144206D120F003006400144200F1040079
S214081B70FAD007EBC009CC468046DCF80C309C450A
S214081B8007D15FE1002A80F26D81DB689C4500F092
S214081B905981596821F003018A1B0F2AF2DDDC6897
S214081BA0D3F808C046F0010828461E4442F001054E
S214081BB0C3F80480CCF80C40C4F808C07E613E61C7
S214081BC0C6F80CE0C6F808E075605A50009300F0B6
S214081BD0C9FA009B03F108041EE0102920D800F07B
S214081BE0BBFA102618230220724F3B445C68A3F108
S214081BF00802944200F02F816368E16823F003032B
S214081C0023445A68A66842F00102F16028468E60AE
S214081C105A6000F0A7FA0834204603B0BDE8F08FF3
S214081C2000240C2320462B6003B0BDE8F08F40202C
S214081C304FF400714FF03F0E4AE723445A68E168B4
S214081C40E0E723445A68284642F001025A600834FE
S214081C5000F088FA204603B0BDE8F08FBC686368D9
S214081C6023F00308B04504D3A8EB06030F2B00F3B4
S214081C708580DFF85891504BD9F800201B68013250
S214081C80334404EB080A00F0548103F580530F33FD
S214081C9023F47F6B2BF00F0B5946284600F068FAA2
S214081CA0411C024600F0FB80824500F2F680434B5A
S214081CB019685944196000F04C81D9F800000130C1
S214081CC01BBFA2EB0A0A5144C9F80020196012F09B
S214081CD0070100F01481C1F10800C1F580510244E3
S214081CE0083102EB0B09C9F30B09A1EB09094946B0
S214081CF028460193009200F03BFA431C9DE80C002E
S214081D0000F04281801A484440F001001968BC423D
S214081D104944BA601960506017D0B8F10F0F40F206
S214081D20FA804FF0050C6268A8F10C0020F0070056
S214081D3002F0010204EB000E02430F286260CEF8A0
S214081D4004C0CEF808C000F216811D4BBC681A689D
S214081D50914288BF19601B4B1A689142626888BF17
S214081D60196022F003029642A2EB060301D80F2B55
S214081D7004DC284600F0F6F900244DE746F0010298
S214081D8043F00103264462602846BE600834736048
S214081D9000F0E8F9204603B0BDE8F08F142B70D9A0
S214081DA0542B00F2A280330B03F16F0003F16E0E82
S214081DB0C1008DE6300907207C1007204C1007204C
S214081DC0741007207810072038090720380D0720D8
S214081DD05A0A042A5BD9142A00F2AE8002F15C0182
S214081DE0C9005B3207EB010C7958ACF1080C8C453E
S214081DF000F088804A6822F00302934273D289680A
S214081E008C45F7D1DCF80C307A68E360C4F808C073
S214081E109C60CCF80C409EE646F0010C42F00101AE
S214081E202644C4F804C028467E613E61C6F80CE025
S214081E30C6F808E07160E25000F094F90834EBE662
S214081E407A6888E608F1010818F0030F0CF1080C08
S214081E507FF493AE2DE0DC68A34208BF02303FF45F
S214081E604BAEC9E61C4619444A68DB6854F8086F46
S214081E7042F001024A602846F3609E6000F072F95C
S214081E80CAE603F15C0003F15B0EC10020E69A097E
S214081E9002F13901C9003832A4E7BC4254D0BC6804
S214081EA0626822F003025EE759F80839994540F05F
S214081EB0868010F0030F00F1FF30F5D17B6823EA27
S214081EC004037B6064009C423FF6C8AE002C3FF4D7
S214081ED0C5AE1C4240467FF44CAE64001C4200F17E
S214081EE00400FAD045E68C468CE7B3F5AA7F15D8E9
S214081EF0F30B03F1780003F1770EC100E8E54FF421
S214081F008051EEE601217B68921001FA02F21A432C
S214081F107A60634679E7012353602AE740F2545211
S214081F20934222D8B30C03F17D0003F17C0EC10066
S214081F30CEE503F1100BAFE6542A29D81A0B02F1A6
S214081F406F01C9006E324DE7204B19685944196075
S214081F50B3E6CAF30B0000287FF4AFAE08EB0B031A
S214081F60BA6843F001035360EFE67F204FF47E71B2
S214081F704FF07E0EACE504F108012846009302F007
S214081F800FFC009B1968E0E601204FF00009BDE64B
S214081F90B2F5AA7F05D8DA0B02F17801C9007732C4
S214081FA020E740F254518A4205D89A0C02F17D0186
S214081FB0C9007C3216E74FF47E717E2212E77B68F2
S214081FC080E7F00806F108030EE600BF4C1007206D
S214081FD0844641EA000313F0030349D1403A23D369
S214081FE00B6803604B6843608B688360CB68C3608C
S214081FF00B6903614B6943618B698361CB69C36174
S2140820000B6A03624B6A43628B6A8362CB6AC3625B
S2140820100B6B03634B6B43638B6B8363CB6BC36343
S21408202040304031403ADBD230320BD30B68036085
S2140820304B6843608B688360CB68C3601030103190
S214082040103AF3D20C3205D351F8043B40F8043B5F
S214082050043AF9D2043208D0D2071CBF11F8013B63
S21408206000F8013B01D30B8803806046704700BF29
S214082070082A13D38B07B1D010F00303AED0C3F1F0
S2140820800403D21ADB071CBF11F8013B00F8013B1A
S214082090A4D331F8023B20F8023B9FE7043AD9D391
S2140820A0013A11F8013B00F8013BF9D20B780370AE
S2140820B04B7843708B7883706046704770B4860799
S2140820C046D0541E002A41D0CAB2034602E014F194
S2140820D0FF343BD303F8012B9D07F8D1032C2ED9E8
S2140820E0CDB245EA05250F2C45EA054519D92646F9
S2140820F003F11002103E0F2E42F8105C42F80C5CFA
S21408210042F8085C42F8045C02F11002F2D8A4F126
S214082110100222F00F0204F00F041032032C1344AE
S2140821200DD91E462246043A032A46F8045BFAD816
S214082130221F22F003020432134404F003042CB1D5
S214082140C9B21C4403F8011B9C42FBD170BC704703
S21408215014460346C2E700BF014802F015BC00BF9C
S21408216028110720014802F011BC00BF28110720DB
S21408217038B50023064C054608462360FFF7BCFA28
S214082180431C00D038BD2368002BFBD02B6038BD1D
S2140821903C1107200EB40146F0B56FF000454FF429
S2140821A002774FF6FF769CB021AC54F8042B0B4B05
S2140821B002910691186802A923460194ADF8147096
S2140821C004950795ADF8166000F038F80022029BD3
S2140821D01A701CB0BDE8F04003B07047040507202D
S2140821E020F0030110F00300C0F1000051F8043B92
S2140821F000F1040C4FEACC0C6FF000021CBF22FA68
S2140822000CF213434FF0010C4CEA0C2C4CEA0C4C25
S214082210A3EB0C0222EA030212EACC1204BF51F81E
S214082220043B0430F4D0C2F1000102EA0102B2FA1B
S21408223082F2C2F11F0200EBD20070472DE9F04F80
S214082240C3B00C460B9192460F930C9002F08EFB8F
S214082250036818461A93FFF7C3FFA389199019064F
S21408226003D52369002B01F0358000230DF1C8093A
S214082270C84615931393149318931B9309931693B0
S214082280179327932693CDF894909AF800305446DF
S214082290EBB1252B02D11AE0252B03D014F8013F09
S2140822A0002BF9D1A4EB0A058DB1269B279A01339A
S2140822B02A44072BC8F800A0C8F80450279226938B
S2140822C000F38A8008F10808099B2B4409932378B1
S2140822D0002B00F0898000234FF0FF301A468DF857
S2140822E0773019460D939B46637804F1010A0A90E5
S2140822F00AF1010AA3F12000582800F2B783DFE8A4
S21408230010F04C03B503B5035403B503B503B50382
S214082310B503B503B50359005903B503660014029F
S214082320B5032F02A503A503A503A503A503A503C7
S214082330A503A503A503B503B503B503B503B50300
S214082340B503B503B503B503B5038B02D302B503CE
S214082350D302B503B503B503B5031B03B503B5032D
S2140823602003B503B503B503B503B5033402B503B7
S214082370B5034B02B503B503B503B503B503B503FB
S214082380B503B503B503B50376029E03D302D3029D
S214082390D30263039E03B503B5036803B503750349
S2140823A0DD018C035E03B503F201B5038700B503B0
S2140823B0B50332030F9C236818460D93234600285E
S2140823C003F104030F9304DA0D9B5B420D934BF065
S2140823D0040B9AF800308BE725AA0B990C9803F0A3
S2140823E049F840B9C8466FE7279B23B10C9825AA39
S2140823F00B9903F03FF80B9B9B8913F0400F099B42
S21408240018BF4FF0FF330993099843B0BDE8F08F23
S2140824101BF0200F119340F0AF810F9A1BF0100F9E
S214082420134640F09A851BF0400F00F0968500256D
S2140824300123148804320F92002217468DF877205D
S2140824400A994A1C00F010822BF08002079254EA80
S214082450050240F00F82002940F03184002B40F03E
S21408246039851BF001030E9300F06286302342AED6
S21408247006F8413D0A9B0E9A9342B8BF1346089346
S2140824800023129317B1089B01330893079B13F098
S2140824900203109302D0089B02330893079B13F09D
S2140824A0840540F010830D9B089AA3EB020BBBF142
S2140824B0000F40F30883BBF1100F40F3B287279C48
S2140824C043462146A8461027269A0C9C0B9D06E0F4
S2140824D0ABF1100BBBF1100F03F1080318DD013246
S2140824E0AB481031072A2791269283E88100EFDD52
S2140824F025AA2946204602F0BDFF00287FF47BAFB8
S214082500ABF1100BBBF1100F4B462799269AE6DC69
S21408251045460C46984601329D4B5C44072A27944C
S214082520269288E8080800F3C3829DF8777008F1B9
S214082530080887B10121269B0C440B440DF177024D
S214082540072B27942693C8F80410C8F8002000F331
S214082550CD8308F10808109B7BB10221269B0C440A
S21408256001331EAA072B27942693C8F80410C8F828
S214082570002000F3118408F10808802D00F0048379
S2140825800A9B0E9A9F1A002F37DD102F40F3798684
S214082590804D42462146B0464FF0100B2E46269BED
S2140825A00C9C0B9D04E0103F102F02F1080215DD6D
S2140825B001331031072B2791269382E84008F2DD75
S2140825C025AA2946204602F055FF00287FF413AFB7
S2140825D0103F102F4A462799269BE9DC35460C46BD
S2140825E04646904601333C44072B2794269388E8B2
S2140825F0A00000F3708308F10808079BDF0500F1C8
S2140826006482269B0E9901330C44072B2794C8F83E
S2140826100060C8F80410269300F3B38308F108088E
S214082620079B5B073BD50D9B089A9D1A002D36DD48
S214082630102D40F321871026269B0C9FDDF82CB022
S21408264004E0103D102D08F1080816DD0133504A45
S2140826501034072B2794269388E84400F1DD25AA32
S2140826605946384602F006FF00287FF4C4AE103DEF
S214082670102DC846279C269BE8DC0133444A2C4488
S214082680072B2794269388E8240008DD25AA0B99AB
S2140826900C9802F0EFFE00287FF4ADAE279C099B4D
S2140826A00D9A08998A42ACBF9B185B180993002CB0
S2140826B040F0FB820023C8462693E6E511931BF0FC
S2140826C0200340F045811BF0100240F066841BF0A2
S2140826D0400300F062840F9913460A4604320C88B9
S2140826E000250F92A8E600250F9A119316688DF814
S2140826F07750141D002E00F0CD860A9A531C00F061
S2140827001B862946304602F059F9002800F00D8746
S214082710831B0A950E930F94CDF81CB023EAE37337
S214082720089312959DF87770ACE69AF800300AF18F
S21408273001042A2B00F0C287A3F130000928A2461C
S21408274000F2188700231C461AF8013B04EB8404A1
S21408275000EB4404A3F130000928F5D90A94C9E52A
S2140827604BF0800B9AF80030C2E54BF0100B1BF0CC
S214082770200F11933FF451AE0F9C073424F0070343
S21408278003F10802D3E900450F92012354E600BF7F
S214082790E4630800F46308001193002A40F0AD874C
S2140827A0BE4B1BF0200F189340F0E7800F9A1BF0E3
S2140827B0100F134640F0D8831BF0400F00F0D48368
S2140827C00025043314880F931BF0010F00F0E380F4
S2140827D054EA050300F0DF8030239DF844208DF886
S2140827E078308DF879204BF0020B022324E601227C
S2140827F01193002311460F98089202681F468DF819
S21408280077300A931293031DCDF81CB00E918DF8FD
S214082810A0200F9328AE39E61193002A40F084874B
S2140828204BF0100B1BF0200F40F075840F9A1BF02E
S214082830100F134640F09D831BF0400F00F099835D
S214082840B2F900400433E5170F9322462B46002AB8
S21408285073F10003C0F298830A999DF877704A1CB2
S2140828604FF001037FF4F0AD54EA050200F0298228
S214082870CDF81CB0012B00F00E83022B40F09C8292
S2140828804E461898230943EA0573290904F00F02EF
S2140828900D461C46835C06F8013D54EA0503F1D153
S2140828A0A9EB06030E93E5E51193002A40F0388756
S2140828B00F9C1BF0080F04F1070400F0CF8424F0E7
S2140828C0070303F108020F921A685B6815921493BF
S2140828D0149B159D23F00044284621464FF0FF32EE
S2140828E06F4B03F035FB002840F034842846214619
S2140828F04FF0FF326A4B03F00DFB002840F02A84A5
S21408290015A80DC8149903F0FBFA002840F0D485E2
S2140829109DF8777003231A4608930023614E1946DC
S2140829200A93614B0E92119A2BF080000790129131
S214082930472AD8BF1E46A5E54BF0080B9AF8003084
S214082940D6E44BF0100B11931BF020033FF4BBAEFC
S2140829500F9C073424F0070303F10802D3E9004567
S2140829600F92002368E51193002A40F0C2864F4B69
S2140829701BF0200F18933FF419AF0F9C1BF0010FA4
S21408298004F1070424F0070303F108020F92D3E9C1
S21408299000457FF41DAF02234EE59AF80030002963
S2140829A07FF4A6AC01222021A2E44BF0010B9AF892
S2140829B000309DE49AF8003001222B2198E44BF071
S2140829C0200B9AF8003093E44BF0400B9AF800304E
S2140829D08EE49AF800306C2B03BF9AF801304BF05F
S2140829E0200B0AF1010A4BF0100B81E4002A40F094
S2140829F07C861BF0200F40F052841BF0100F40F02E
S214082A0038841BF0400F00F034840F9A13680432A1
S214082A100F92BDF824201A8037E4782330220F98C6
S214082A208DF879301193031D0F93204B0468189383
S214082A304BF0020B8DF8782000250223FCE4119356
S214082A40002A3FF4EFAE8DF87710EBE60020044638
S214082A50A3F130001AF8013B04EB840400EB4404AD
S214082A60A3F130000928F5D90D9443E41193002A00
S214082A7040F04A86119A002A3FF4B6AC002301219A
S214082A801F4608918DF8A020CDF81CB08DF8773039
S214082A900A9312930E9128AEF8E400BFB0630800BC
S214082AA0FFFFEF7FA4630800A0630800C463080064
S214082AB025AA0B990C9802F0DDFC00287FF49BAC45
S214082AC0C8469DF87770279C33E5119B652B40F325
S214082AD09A8015A80DC8149903F008FA002800F083
S214082AE093810121269BB54A0B440C44072B279457
S214082AF02693C8F80410C8F8002000F3C68308F127
S214082B0008081F9B139A279C934203DB079BDD0745
S214082B107FF586AD269B199901331A9A0C44072B24
S214082B20C8F80020C8F804102794269300F3C48336
S214082B3008F10808139B5E1E002E7FF771AD102E55
S214082B4040F3758522461027269B9D4DDDF830B04C
S214082B500B9C05E008F10808103E102E40F325826D
S214082B6001331032072B2792269388E8A000F1DD60
S214082B7025AA2146584602F07DFC00287FF43BAC87
S214082B80C846279A269BE7E70D9B089A9F1A002FA8
S214082B907FF7F6AC102F40F3A884894D42462146AD
S214082BA0B0464FF0100B2E46269B0C9C0B9D04E05F
S214082BB0103F102F02F1080215DD01331031072BE4
S214082BC02791269382E84008F2DD25AA2946204662
S214082BD002F050FC00287FF40EAC103F102F4A4637
S214082BE02799269BE9DC35460C464646904601332F
S214082BF03C44072B2794269388E8A00000F39E827F
S214082C0008F10808BCE4139B012B40F34F8201230C
S214082C10269F1C441F44072F2794C8F80060269751
S214082C20C8F8043000F35F8208F10808199A0137DB
S214082C301A9B1444072F27942697C8F80030C8F81C
S214082C40042000F35C8208F1080815A80DC814993A
S214082C5003F04CF9139B002840F04181013B0137F3
S214082C6001361C44072FC8F8006026972794C8F832
S214082C70043000F3668108F108081B9A01371444EB
S214082C8021AB072F27942697C8F80420C8F80030E9
S214082C907FF7C4AC25AA0B990C9802F0EBFB00282A
S214082CA07FF4A9ABC846279CBAE425AA0B990C98CA
S214082CB002F0E0FB00283FF4FDACFFF79CBBDDF814
S214082CC01CB0012B00F07E81022B71D1CDF81CB010
S214082CD000240025D4E525AA0B990C9802F0CAFB17
S214082CE000287FF488ABC846279C86E425AA0B995B
S214082CF00C9802F0BFFB00287FF47DABC846279CE3
S214082D0029E40120269B2D4A03440444072B2794D4
S214082D102693C8F80400C8F8002040F3D88225AAED
S214082D200B990C9802F0A6FB00287FF464ABC84603
S214082D301F99279C29B9139B1BB9079BD8077FF5B2
S214082D406FAC1998269B0246013322441A9C072B1F
S214082D502792C8F80040C8F80400269300F3318488
S214082D6008F108080029C0F20984139901338C1861
S214082D70072B27942693C8F80060C8F804107FF736
S214082D804DAC25AA0B990C9802F074FB00287FF42A
S214082D9032AB279CC84643E425AA0B990C9802F048
S214082DA069FB00287FF427ABC846279CFFF7E5BBDE
S214082DB000240025CDF81CB0494604E0E06308006E
S214082DC0F46308003146E20842EA4572E80804F06F
S214082DD0070305461446303354EA050201F8013C59
S214082DE001F1FF36EED1079AD2077FF559AD302BA1
S214082DF03FF456AD3023023906F8013CA9EB01032F
S214082E000E930E46FFF736BB1F9900297FF779AF5A
S214082E10129B139A9342A8BF1346002B1F460BDD3E
S214082E20269B3C440133072B279488E8C00026934A
S214082E3000F3FB8208F10808129B002FA8BFDB1BD3
S214082E40002B1F4640F3D780102B40F33484BA4D2E
S214082E5042462146B0464FF0100B2E46269B0C9C49
S214082E600B9D04E00832103F102F40F3B580013365
S214082E701031072B2791269382E84008F2DD25AA11
S214082E802946204602F0F6FA00287FF4B4AA4A46F5
S214082E902799269BE7E7002D08BF0A2CC0F09080EC
S214082EA04E46204629460A22002303F08FF8303281
S214082EB006F8012D2046294600230A2203F086F844
S214082EC004460D4654EA0503EBD1A9EB06030E9318
S214082ED0FFF7D0BA0A9B4E460E93FFF7CBBA5E1E94
S214082EE0002E7FF7CAAE102E40F3E38322464FF03B
S214082EF0100B914D0C9C04E0103E102E08F10808AB
S214082F0015DD01371032072F2792269788E8200804
S214082F10F2DD25AA0B99204602F0ACFA00287FF4C9
S214082F206AAA103E102EC846279A269FE9DC144641
S214082F3001373444072F2794269788E860007FF7E0
S214082F409AAE25AA0B990C9802F094FA00287FF4FA
S214082F5052AA279C269FC8468FE604321C6800257E
S214082F6001230F92FFF768BA1C6804330F930025F5
S214082F702AE41C680433E51722460F932B46002ADA
S214082F8073F10003BFF668AC2D27644265EB450570
S214082F908DF877700123FFF753BA0F9900250A4674
S214082FA004320C680F92FFF747BA144601333444CC
S214082FB0072B2794269388E860007FF72FABE0E678
S214082FC0DDF81CB0012342AE3034CDF81CB006F84C
S214082FD0414D0E93FFF74EBA35460C464646904688
S214082FE001333C44072B2794269388E8A00000F377
S214082FF0468208F108081F9A139B9A4245DB079BEE
S214083000D90742D4139B12989A1A1D1A9542A8BF3C
S2140830101546002D0EDD2699064401312C44072955
S214083020C8F800602794C8F80450269100F3168262
S21408303008F10808002DB4BF1646561B002E7FF769
S214083040EFAA102E40F3F38222461027269B3A4D0D
S214083050DDF830B00B9C04E008F10808103E102E8E
S214083060A3DD01331032072B2792269388E8A000A9
S214083070F2DD25AA2146584602F0FCF900287FF41E
S214083080BAA9C846279A269BE8E7269B19980133CB
S2140830901A990444072B2794C8F80010C8F80400A7
S2140830A0269300F3CF8108F10808ABE7079BDA07F9
S2140830B03FF5ADAD0123269F1C441F44072F2794D8
S2140830C0C8F800602697C8F804307FF7D4AD25AA5C
S2140830D00B990C9802F0CEF900287FF48CA9C84604
S2140830E0279C269FC9E525AA0B990C9802F0C2F9D9
S2140830F000287FF480A9C846279C269F96E525AA1F
S2140831000B990C9802F0B6F900287FF474A9C84603
S214083110279C269F99E50F9C073424F0070404F1A2
S2140831200801D4E900230F9114461D46FFF78FBB0C
S2140831304E46FFF79FB900BFF463080025AA0B990F
S2140831400C9802F097F900287FF455A9C846279CE2
S214083150FFF716BA159C22462046149C234621469D
S21408316002F0F6FE002840F073820A9B0133119B9A
S21408317023F020030E9300F09C81472B00F0D680A6
S2140831804BF480730793149B1F1E159B0893B7BFB9
S2140831903B46002303F100472D231093119B662B13
S2140831A000F09081462B00F0A48002200E9B23A9F5
S2140831B0452B0ABF0A9B0A9D5D1C8DE821000491D9
S2140831C020A81FA93B460390089A02910C9800F085
S2140831D05BFB119B0646672B40F0BA811BF0010F7C
S2140831E000F023827419169A0898179B394602F03D
S2140831F07DFE002840F02481239BA34206D230217E
S2140832005A1C23921970239B9C42F9D89B1B139334
S2140832100E9B472B00F0A280119B652B40F3A781DD
S214083220119B662B1F9B129300F07181139B129AB9
S2140832301946914200F35D811BF0010F40F0F081C2
S21408324022EAE273089367230E921193109B002BD1
S2140832507DD10A939DF87770FFF714B924F0070418
S214083260236815936368149304F108030F93FFF714
S2140832702FBB0F9A136804320F92099A1A60FFF749
S21408328004B8269BAF4DFFF7ADB925AA0B990C9845
S21408329002F0F0F800287FF4AEA8C84631E40F9A8A
S2140832A0134604330F93099B1168DD171A462B46FD
S2140832B0C1E90023FEF7E9BF25AA0B990C9802F08E
S2140832C0D9F800287FF497A8C846279C32E408F166
S2140832D008082FE540210C98FEF7D8FB0B9A1060DB
S2140832E01061002800F0148240230B9A5361FEF701
S2140832F0BCBF03200A9C23A98DE81100049120A8CE
S2140833001FA90390089A3B4602910C9800F0BCFA55
S21408331025460646119B7419462B7FF464AF33780E
S214083320302B00F087811F9D2C445CE70A9B002BFE
S21408333008BF01230A9323E730460A95FEF750FF95
S2140833400F940E90CDF81CB00346FFF7E7B92D276B
S21408335000238DF877700A93FFF795B81F9B1A46D7
S2140833601293033304DB0A9B19469142BFF65EAFFD
S214083370119B023B1193129B9DF84420013B002BA6
S2140833808DF88420B4BF2D222B221F93B8BF129B22
S2140833908DF88520B8BFC3F10103092B40F31F81C0
S2140833A00DF193000146684C00E0114684FB035279
S2140833B0DD17C5EBA20505EB8502A3EB420230320A
S2140833C0092D01F8012C2B4601F1FF32EDDC3033D4
S2140833D00239DCB2884202F8014C40F292810DF1C3
S2140833E08601134601E013F8014B834201F8014BAE
S2140833F0F9D101339B1A0DF18602134421AA9B1AB0
S214083400139A1B93012A13440E9340F348810E9B8C
S214083410199A13440E9323EAE3730893002312932E
S21408342014E7279C269AFFF776B825AA0B990C98D6
S21408343002F020F800287EF4DEAFC846279CFBE49E
S2140834402346E3E625AA0B990C9802F013F8002801
S2140834507EF4D1AFC8461F9A279CD3E525AA0B99B8
S2140834600C9802F007F800287EF4C5AF1F9A139B45
S214083470C846279C9A1ADDE5269BFFF7FEB825AABC
S2140834800B990C9801F0F6FF00287EF4B4AFC846F6
S214083490279CB0E50A9B3746062B28BF06230A96C4
S2140834A0129608930F94CDF81CB00E93274EFEF78D
S2140834B0E9BF06230A9363E62D231F468DF8773067
S2140834C0FFF728BA03200A9C23A98DE81100049167
S2140834D020A81FA90390089A3B4602910C9800F072
S2140834E0D3F925460646041919E7269B154DFFF716
S2140834F07EBB199A139B1344129A0E93002A40F324
S214083500C78023EAE3730893672311939EE6002B8C
S21408351040F3E1800A9A002A40F0B0801BF0010FC1
S21408352040F0AC8008930E9390E60A9B0F9408939D
S2140835300E930A90CDF81CB012909DF87770FEF79F
S214083540A1BF00BFF463080067666666D863080014
S214083550119B472B7FF446AE1BF0010F7FF4DAAEC3
S214083560239B9B1B13930E9B472B3FF4F7AE1F9B87
S214083570129300E700200A90FEF7BCBE4F421031B7
S21408358035DA10246A4DDDF830B004E008F1080892
S214083590103F102F2CDD01331032072B279226936D
S2140835A0C8F80050C8F80440F0DD25AA0B9958461C
S2140835B001F060FF00287EF41EAFC846279A269BB7
S2140835C0E6E725AA0B990C9801F054FF00287EF42C
S2140835D012AFC8461F99279A269BFFF7C3BB30220F
S2140835E013448DF887308DF8862022AB06E7504DB9
S2140835F001333A44072B88E8A0002792269308F15F
S21408360008087FF7B2AB25AA0B990C9801F032FF91
S21408361000287EF4F0AEC846279A269BFFF7A5BB7F
S214083620129B199A13440E936BE7239BEEE5269B91
S2140836303F4DBBE4169A0898179B394602F056FC8D
S21408364000287FF470AEC5F101051F952C44CAE525
S214083650149B384E002BBEBF2D231F468DF877309F
S2140836604FF003031A4608934FF00003A8BF9DF8CF
S214083670777019460A93304BFFF754B9129B199A7C
S21408368013440A9A1A4422EAE2730E920893DDE576
S214083690129B0E9AC3F101031A441346C3E71BF0A4
S2140836A0010312937FF4B3AE0E9B23EAE3730893E9
S2140836B0CCE51F4D3CE4269B1D4D91E40F9D9AF8E2
S2140836C001302868A24640EAE0700A90284604308E
S2140836D00F90FEF70DBE0A9B13B91BF0010F02D020
S2140836E0199B0133CDE701231CE78DF87710FFF708
S2140836F080B98DF87710FFF73AB98DF87710FFF78D
S2140837004FB80DF1860379E68DF87710FFF7B2B952
S2140837104FF0FF320C2309920C9A1360FEF774BE22
S2140837208DF87710FFF7C4B88DF87710FFF778B8DC
S214083730F4630800AC630800A8630800024B13B1E2
S214083740024800F005B8704700000000CD460800A3
S214083750002301461A46184601F016BF2DE9F04F19
S21408376003690F6983B09F4200F38880013F01F127
S214083770140600F1140A56F827305AF827200133A1
S214083780B2FBF3F8BB00009306EB0309534401931E
S214083790B8F1000F3BD00023B4461C46D6465CF86A
S2140837A0042BDEF800501FFA82FB08FB0B33120CC2
S2140837B04FEA134B08FB02BB9AB2A21AABB21FFA27
S2140837C08BF41A44C4EB154404EB224492B242EA42
S2140837D00442E1454EF8042B4FEA24444FEA1B43C3
S2140837E0DDD2009B5AF803308BB9019C231F9A45FB
S2140837F00CD254F8043C4BB9A4F1080302E01A684A
S214083800043B1AB99A4507F1FF37F8D3076104460F
S21408381001F07CFB00282DDB5546002308F1010843
S21408382056F8041B28688AB29A1A0B0C81B20A4406
S214083830C3EB104303EB224392B242EA0342B1457C
S21408384045F8042B4FEA2343EAD25AF827200AEB16
S21408385087037AB91A1F92450BD253F8042C42B93B
S214083860083B02E01A68043B1AB99A4507F1FF3785
S214083870F8D32761404603B0BDE8F08F002003B0B8
S214083880BDE8F08F000000002DE9F04F056C9BB0F6
S214083890044692469B46279E4DB10123426C294614
S2140838A09340AB606A6001F059F900232364BBF1CA
S2140838B0000F5D4635DB002333609D4BAB4315D0C8
S2140838C0002200235046594602F010FB8046002886
S2140838D02DD00123269A1360289B002B00F0BD806C
S2140838E09448186001381BB0BDE8F08F42F20F7399
S2140838F0269A1360BAF1000F0DD1C5F3130555B912
S214083900289B8D48002BEED000F10803289A1360F8
S2140839101BB0BDE8F08F289B8848002BE3D0C31C5B
S214083920F4E701232BF000453360AB46C5E718AA39
S21408393019AB0192009352465B46204601F090FB75
S2140839402B0D814671D05046CBF3130242F07F51BF
S214083950189FA3F2FF36CDF8508041F4401100229C
S214083960774B01F0A7FE6CA3D3E9002302F056F8C4
S2140839706BA3D3E9002301F09FFECDE90201304690
S21408398001F0E6FF68A3D3E9002302F047F80246F1
S2140839900B46DDE9020101F08FFECDE9040102F0D5
S2140839A0EDFA002202900023DDE9040102F0A8FAED
S2140839B0002840F06D81029D162D00F2578161495E
S2140839C0524601EBC5015B46D1E9000102F0B6FAA2
S2140839D0002800F0BE816B1E029300230E93BF1BC7
S2140839E07B1E089300F14E8100230A93029B002B4E
S2140839F0C0F23F81089A0D93114619440023089196
S214083A000C93249B092B2AD8052B40F358860025AF
S214083A10043B2493249B023B032B00F23F86DFE8FB
S214083A2013F0CE03C302D9035B04189F199E3E44C5
S214083A3006F23243202B40F38781C3F1400306F297
S214083A4012409D402AFA00F0284301F071FF012336
S214083A50013E1493A1F1F87181E73B4843E7002142
S214083A6020466164259101F053F84FF0FF33079321
S214083A700F930123259A0490206424920B93199B94
S214083A80002BC0F2D380029A0E2A00F3CF802D4B6B
S214083A9003EBC203D3E90023CDE90823259B002BBB
S214083AA0C0F2B483DDE9085650462A4633465946DE
S214083AB002F0DEF802F062FA804601F049FF2A4674
S214083AC0334601F0ABFF02460B465046594601F016
S214083AD0F1FD079E049F08F13005012E3D70024651
S214083AE00B4607F1010564D00022184B01F096FF3B
S214083AF00022002306460F4602F0F8F9002840F098
S214083B008280CDF828904FF0000ADDE908894FF04A
S214083B10000B0B9429E000BF61436F63A787D23F71
S214083B20B3C8608B288AC63FFB799F501344D33F9F
S214083B300000F07FE16308000464080010640800D1
S214083B400000F83F50640800E063080000002440C6
S214083B500022814B01F062FF52465B4606460F463E
S214083B6002F0C4F9002840F0BA8342464B46304675
S214083B70394602F07DF802F001FA044601F0E8FE44
S214083B8042464B4601F04AFF02460B463046394647
S214083B9001F090FD04F1300605F8016B049E079FBE
S214083BA0AE1BBE4202460B46D2D1A046DDF8289090
S214083BB00B9C1046194601F07FFD06460F46024646
S214083BC00B46DDE9080102F09BF948B9DDE9080172
S214083BD032463B4602F08AF9A8B118F0010F12D017
S214083BE015F8018C6B1E049A04E09A4200F00284D1
S214083BF013F8018DB8F1390F03F10105F5D008F176
S214083C00010883F800804946204600F0A7FF0022F6
S214083C10029B2A70269A01331360289B002B00F01B
S214083C209F8304981D601BB0BDE8F08F0B9A002A8E
S214083C303ED0249A012A40F31183079B0C9A5F1EF4
S214083C40BA42C0F29083D71B079B002BC0F28C8425
S214083C500A9D079B0A9A01211A440A92089A204646
S214083C601A44089201F016F8064623E001230E933C
S214083C70B5E600230A9A0D93029BD21A5B420A9273
S214083C800C93BEE6C7F101030A9300230893ADE63A
S214083C90029D284601F05CFE02460B46DDE904015B
S214083CA002F024F900287FF486AE6B1E029382E6A3
S214083CB00AADE0CD002D0CDD089900290B4608DD7D
S214083CC0A942A8BF2B460A9AED1AD21ACB1A0A920C
S214083CD008930C9BD3B10B9B002B00F0B882002FE7
S214083CE010DD31463A46204601F070F84A4601464D
S214083CF00646204600F0D8FF034649462046994621
S214083D0000F02CFF0C9BDA1B40F0A2820121204613
S214083D1000F0C0FF0D9B8046002B1FDD01461A46AB
S214083D20204601F053F8249B8046012B40F3558229
S214083D3000230C93D8F8103008EB8303186900F0BA
S214083D4059FFC0F1200013E0C3F120050AFA05F078
S214083D507BE60E9043E600BF00002440249B012B20
S214083D6040F3858200230C930D9B0120002BE1D1A4
S214083D70089A104410F01F0000F0A180C0F120033C
S214083D80042B40F386840A9BC0F11C0003440A9364
S214083D9013460344054408930A9B002B05DD494651
S214083DA01A46204601F062F88146089B002B05DD7E
S214083DB041461A46204601F059F880460E9B002BCD
S214083DC040F08680079B002B40F364820B9B002BF9
S214083DD000F09880002D05DD31462A46204601F081
S214083DE045F806460C9B002B40F036830896079B42
S214083DF0049A013BD3180B9317460AF00103C246F0
S214083E00DDF820B00C9351464846FFF7A7FC31462C
S214083E100546484601F07AF85A4607905146204625
S214083E2001F090F8C268804605F13003002A40F099
S214083E302982014648460A9301F068F841460890E8
S214083E40204600F08BFE089A0A9B32B9249921B9BD
S214083E500C9A002A00F0EE83249A07990029C0F2EB
S214083E609F8205D1249919B90C99002900F09882E7
S214083E70002A00F305830B9A07F1010897423B7066
S214083E80454600F00B83494600230A22204600F0E8
S214083E906FFE5E45814631464FF000034FF00A023A
S214083EA0204600F0E98100F063FE594606460023E6
S214083EB00A22204600F05CFE47468346A3E71C20FD
S214083EC00A9B054403440A93089B0344089363E744
S214083ED04146484601F01AF80028BFF673AF029F1D
S214083EE0494600230A222046013F029700F040FE7A
S214083EF00B9B8146002B40F0B5830F9B002B40F3AD
S214083F00BE830793DDF810A0079F554606E049468E
S214083F1000230A22204600F02BFE814641464846EA
S214083F20FFF71CFC303005F8010BA5EB0A03BB4273
S214083F30EDDB049B079A8246012AACBF9B18013327
S214083F404FF0000B1D4649460122204600F08EFF22
S214083F504146814600F0DAFF002840F33F8215F814
S214083F60012C6B1E049904E08B4200F0AE8113F816
S214083F70012D392A03F10105F6D001321A7041469F
S214083F80204600F0EBFD002E3FF43DAEBBF1000FDF
S214083F9005D0B34503D05946204600F0DFFD31462C
S214083FA0204600F0DBFD2EE600230B93029B259AA5
S214083FB013440F930133012B1F461E46B8BF012733
S214083FC007930021172F61640AD9012204235B0096
S214083FD003F114008742114602F10102F7D2616428
S214083FE0204600F095FD0E2E049020643FF647AD5F
S214083FF0002D3FF444AD0299CDE910AB002940F3FB
S2140840000382B94B01F00F020D1103EBC203E90658
S214084010D3E9006740F1AF81B44B5046D3E9082393
S214084020594601F025FE4FF0030ACDE9120105F0C6
S2140840300F058DB1DFF8B482EA0709D5D8E9002361
S2140840403046394601F0EAFC06460F460AF1010AF0
S2140840506D1008F10808EFD13B46DDE9120132463B
S21408406001F006FE074688460E9B43B10022A04B89
S2140840703846414601F044FF002840F08782504603
S21408408001F066FC3A46434601F0C8FC994B00220C
S21408409001F012FB079B0546A1F15076002B00F0B5
S2140840A03F81029B1593079B12930B9B002B00F0F6
S2140840B0FB81129A8C4B002003EBC20353E90223C0
S2140840C08D4901F0D5FD2A46334601F0F3FA8246BB
S2140840D08B463846414601F051FF054601F038FC4C
S2140840E002460B463846414601F0E4FA30355FFA98
S2140840F085F8049D06460F4685F8008002460B465E
S21408410050465946013501F019FF002854D1324669
S2140841103B460020764901F0CDFA02460B4650464B
S214084120594601F00BFF002840F07082129A012AC7
S21408413000F01281129B049ACDF8489013449946D1
S2140841400FE032463B460020694901F0B3FA524672
S2140841505B4601F0D5FE002840F056824D4500F03B
S214084160F980504659460022644B01F057FC00225D
S214084170624B82468B463046394601F04FFC0F4666
S214084180064601F0FBFE804601F0E2FB02460B46BF
S2140841903046394601F08EFA08F130085FFA88F89A
S2140841A005F8018B52465B4606460F4601F0A8FE08
S2140841B00028C6D0DDF84890159B029323E5002317
S2140841C00B93259B002B40F3DD801F461E460F935E
S2140841D00793F6E601230B93F3E7BAF1000F7FF493
S2140841E0A7ADCBF31303002B7FF4BCAD2BF0004731
S2140841F03F0D3F05002F00F00D820A9B01330A93FE
S214084200089B0133089301230C93ADE5079B002B0D
S2140842103FF748AC40F02282DDE908010022384B1F
S21408422001F0FCFB52465B4601F07EFEDDF81C8082
S2140842304646002841D0259B049DDB430293414611
S214084240204600F08BFC002E3FF4DDACA7E60C9A67
S2140842504946204600F0BAFD814657E5149A002ADA
S21408426000F0888103F233430C9F0A9DF2E4BAF10A
S214084270000F7FF477ADB4E700F07AFC47460646B1
S2140842808346C0E501462046089300F067FC0122F5
S214084290089BE2E5249B022B7FF798AD079B002B33
S2140842A0C9D141460522204600F062FC01468046F8
S2140842B0484600F02BFE0028BDDD3123029A0499FB
S2140842C0013202920B704D1CB9E73123029A013273
S2140842D00292049A137052E601230B9366E6DDF801
S2140842E028900B9C8FE400BF5064080028640800E0
S2140842F00000F03F00001C400000E03F00002440A3
S21408430000001440504601F023FB3A46434601F0AD
S21408431085FB0022C14B01F0CFF90546A1F1507686
S21408432041460022BE4B384601F0C4F92A463346B9
S21408433082468B4601F002FE8046002840F0108137
S2140843402A4606F100435046594601F0D9FD18B1F1
S214084350464670E7DDF84890DDE910ABFFF78FBBFF
S2140843600498FFF7C0BA0C9B0D9AFB1A1A440C97D0
S2140843700D92002768E4DDE910234FF0020ACDE924
S214084380122356E60021012320466164259300F097
S214084390BFFB259B04900793259B20640F9327E675
S2140843A0002AD046CDF820B09A4611DD49460122AB
S2140843B0204600F05BFD4146814600F0A7FD002838
S2140843C040F34581BAF1390F00F0058105F1310A4D
S2140843D0B34687F800A07D1C089ED0E504D11AF0E5
S2140843E0010F01D0BBE5154615F8013C6A1E302BB7
S2140843F0F9D0C4E5302204990A70029A15F8018C9F
S21408440001320292FFF7FBBB00F0BB80DDE910012A
S214084410029B4FF0020A5D42824B05F00F0203EB47
S214084420C203D3E9002301F0F9FA2D11074688469E
S2140844303FF41AAE7C4EEB0709D5D6E9002338467A
S214084440414601F0EBFA074688460AF1010A6D1064
S21408445006F10806EFD107E67168204600F058FB1B
S2140844600546336906F10C0102339A000C30FDF755
S214084470AFFD29460122204600F0F8FC0890B6E475
S214084480392BCDF820B0D04600F0A58003F1010AFC
S214084490B34687F800A07D1C089E70E55A46D046AD
S2140844A0B3469A4616464EE512985E492A4601EBEA
S2140844B0C001334651E9020101F0B0FACDE9160110
S2140844C03846414601F05AFD054601F041FA0246D3
S2140844D00B463846414601F0EDF806461298049A0F
S2140844E03035012815700F4602F1010526D0129BBB
S2140844F0049ACDF8489013444FF0000A9946DFF81E
S21408450030B152465B463046394601F087FA0F46C8
S214084510064601F033FD804601F01AFA02460B46BD
S2140845203046394601F0C6F808F1300805F8018B20
S2140845304D4506460F46E4D1DDF848900022DDE9F1
S21408454016013A4B01F0B8F832463B4601F0D8FC63
S214084550002846D0159B029315F8018CFFF742BB3E
S2140845604FF000084646A8E60A9B079A9D1A0023BD
S214084570FFF770BB189B0C9FC3F136030A9DFFF725
S21408458069BBDDE910784FF0020A6DE5079B002B42
S2140845903FF4B8AE0F9B002B7FF7DEAE0022244B0D
S2140845A03846414601F03AFA074688460AF10100BD
S2140845B001F0CEF93A46434601F030FA0022174B8E
S2140845C001F07AF8029A0F9B013A05461592A1F176
S2140845D05076129369E53922B3463A70089E7D1CD8
S2140845E0BFE4DDE916230020104901F063F83246DF
S2140845F03B4601F0A3FC08B9AEE6154615F8013CA3
S2140846006A1E302BF9D0D7E5DDF84890159B029343
S214084610FFF7E8BA0C97FFF7A7BB00BF00001C40DF
S2140846200000144050640800286408000000E03FBA
S21408463000002440392BCDF820B0D046DDF81CB059
S2140846409A46C8D0BBF1000F3FF7C0AEC0E67FF46D
S214084650BFAE1AF0010F3FF4BBAEB3E64FF000084A
S2140846604646E8E5314600230A22204600F080FA4E
S2140846700F9B0646002B07DD0793FFF7ABBB249B73
S214084680022B1FDC0F9B3CE4249B022B1ADC0F9B9F
S214084690F2E73FF481ABC0F13C0011E40025204668
S2140846A06564294600F034FA4FF0FF3307930F93FA
S2140846B001230490259520640B93FFF7E0B90125A4
S2140846C0FFF7A8B90F9B0793E8E500BF38B50A4C73
S2140846D00A4D641BA4100AD004F18043013B05EB85
S2140846E08305013C55F804399847002CF9D1BDE8F4
S2140846F0384001F0A3BF00BF4C66080048660800B3
S214084700F8B50C46234F0646FDF726FDBB68C4F5EC
S2140847107E615D680F3125F00305294421F47F6129
S21408472021F00F01A1F58054B4F5805F07DB002166
S2140847303046FDF71DFDBB682B44984204D0304632
S214084740FDF710FD0020F8BD61423046FDF710FD6C
S21408475001300DD0104BBA6819682D1B45F00105BD
S2140847603046091B55601960FDF7FCFC0120F8BDB2
S21408477000213046FDF7FCFCBA68831A0F2BDEDDF5
S214084780064C0549246843F00103001B5360086083
S214084790D5E700BF300907204C100720380D072042
S2140847A0002944D02DE9F0410D468046FDF7D4FC9B
S2140847B055F8047C6949A5F1080427F00103E218B6
S2140847C08E685068B24220F003005ED0FE07506044
S2140847D00BD455F8087C01F1080EE41BA5683B4489
S2140847E075456DD0E768EF60BD6015186D68ED0714
S2140847F03ED543F001026260E350B3F5007F17D25E
S2140848000122DB0898104D68134451F83370824033
S21408481001EBC3002A430838E060A7604A6041F805
S2140848203340FC604046BDE8F041FDF79BBC70474E
S2140848305A0A042A52D89A0902F13907FF0002F1E7
S2140848403805C819CA59083890424FD0516821F01F
S21408485003018B4232D292689042F7D1C368A060B7
S214084860E3609C60C4604046BDE8F041FDF77ABC52
S21408487095683B4F0344BD4240D0D06843F00102E0
S214084880E86085606260E350B7E7FF07034407D433
S21408489055F8085C641BE268A0682B44C260906008
S2140848A0304A43F001001268606093428C60B9D3C6
S2140848B02D4B40461968FFF723FFB3E71046CDE7B0
S2140848C011184968C90744D491680344D26843F06C
S2140848D00100CA6091606060E350A3E7142A16D806
S2140848E002F15C07FF0002F15B05AAE70123AA10A4
S2140848F04D6893402B434B600346B0E743F00102F4
S2140849004C610C61E560A5606260E3508AE7542A52
S21408491006D81A0B02F16F07FF0002F16E0590E742
S214084920B2F5AA7F06D8DA0B02F17807FF0002F183
S214084930770586E740F25450824206D89A0C02F170
S2140849407D07FF0002F17C057BE74FF47E777E2526
S21408495077E743F001016160136063E730090720D9
S214084960380907203C0D07207C100720044A054B11
S2140849701268506B002808BF1846F030704700BF12
S21408498004050720440D0720704700BF704700BF86
S21408499082B049B15AB16BB113780B601278101C0B
S2140849A018BF012002B0704701A9002AF3D11046AB
S2140849B002B070476FF00100F4E700BF830770B4D9
S2140849C0CDB23DD0541E0AB30378AB421FD0431C69
S2140849D005E014F1FF3419D30278AA4217D013F071
S2140849E0030F184603F10103F3D1032C11D84CB377
S2140849F00378AB420BD00444431C02E00278AA4278
S214084A0005D09C42184603F10103F7D1002070BC7C
S214084A107047090289B2294341EA014103680646FC
S214084A204B40A3F1013222EA030313F0803F00F162
S214084A30040003D1043C032CF0D8D8E73046D7E767
S214084A401446D2E72046E2E78842F0B50DD98B181F
S214084A5098420AD28418002A51D0224613F8014DEB
S214084A60994202F8014DF9D1F0BD0F2A48D941EA1A
S214084A7000039B0746D1154600F1100401F1100308
S214084A8053F8106C103D44F8106C53F80C6C0F2D4E
S214084A9044F80C6C53F8086C04F1100444F8186CCD
S214084AA053F8046C03F1100344F8146CE8D8A2F128
S214084AB0100323F00F0302F00F0E1033BEF1030F9E
S214084AC01944034421D90E4674461D1F56F8047B24
S214084AD0043C032C45F8047FF8D8AEF1040424F00F
S214084AE0030404342144234402F0030262B1013B68
S214084AF00A4411F8014B8A4203F8014FF9D1F0BD78
S214084B000346F3E70346F2E7F0BD7246EEE700BF5A
S214084B10C36C70B505460C464BB153F8240080B1FB
S214084B20026843F8242000230361C36070BD212275
S214084B30042100F08BFDE86403460028EDD1002030
S214084B4070BD012101FA04F6721D2846920000F095
S214084B507DFD0028F3D044608660E4E731B1C36C7D
S214084B604A6853F82200086043F82210704700BFCE
S214084B70F0B50C4605464FF0000E0E6983B001F1FD
S214084B80140738680EF1010E81B202FB0133010CDE
S214084B90180C02FB01019BB203EB0143764547F86C
S214084BA0043B4FEA1143ECDC3BB1A268964207DAB5
S214084BB004EB8602013653612661204603B0F0BD39
S214084BC06168284601310193FFF7A2FF074622696C
S214084BD004F10C01023292000C30FDF7F9F9EA6C88
S214084BE06168019B52F82100206042F821403C464B
S214084BF0DEE700BF020C12040346B2B90304102015
S214084C0013F07F4F04BF1B02083013F0704F04BF29
S214084C101B01043013F0404F04BF9B000230002BEA
S214084C2002DB5B0003D4202070470020E8E7013051
S214084C30704700BF0368014613F0070207D0DA077B
S214084C4021D4980721D49B080B600220704798B29D
S214084C5098B1104613F0FF0F04BF1B0A08301A0756
S214084C6004BF1B0904309A0704BF9B080230DA0702
S214084C7007D45B0804D1202070471B0C1020E9E7F6
S214084C8001300B607047002070475B080B600120FE
S214084C90704700BF10B50C460121FFF739FF012207
S214084CA04461026110BD00BF2DE9F04F0C6915691B
S214084CB083B0AC428B46164604DA2246B3462C46E8
S214084CC00E461546DBF8083004EB0508DBF804103A
S214084CD09845C8BF0131FFF71BFF00F1140909EB1F
S214084CE0880AD145009005D24B46002143F8041B9C
S214084CF09A45FBD806F1140C0CEB85030BF1140B44
S214084D009C450BEB840E4BD2CDF804A09A46DCF8F3
S214084D100050AFB2E7B14D465E46002156F8042B68
S214084D20286893B284B2120C07FB0343000C07FBF7
S214084D3002020B4402EB13419BB243EA0143B64519
S214084D4045F8043B4FEA1141E8D82960DCF80050E2
S214084D502D0C1DD0D9F8003048461C46594600226E
S214084D600E88240C05FB06449BB2224443EA024301
S214084D7040F8043B51F8043B04681B0CA6B205FB3C
S214084D8003638E4503EB12434FEA1342E8D80360E9
S214084D900CF1040CE24509F10409B8D8DDF804A0C2
S214084DA0B8F1000F0BDD5AF8043CAAF1040A1BB14F
S214084DB005E05AF8043D13B9B8F10108F9D100988E
S214084DC0C0F8108003B0BDE8F08F00BF12F00303F0
S214084DD02DE9F041144607462ED10D46A4101CD0E6
S214084DE0BE6C96B3E3074FF0000806D4641014D0E0
S214084DF03068A8B10646E307F8D53246294638464D
S214084E00FFF752FFB5B16A68FB6C641053F82210BE
S214084E10296043F822500546EAD12846BDE8F081C5
S214084E20324631463846FFF73FFF3060C0F800800C
S214084E300646E0E70546D9E70B4A013B52F8232029
S214084E400023FFF795FE0546C8E701213846FFF719
S214084E505FFE40F27121012200234161026106468D
S214084E60B8640360BEE700BF186508002DE9F8437C
S214084E700B69541104EB03088B6808F101059D4281
S214084E800E4691460746496804DD5B009D4201F1DF
S214084E900101FADC3846FFF73BFE002C00F114034C
S214084EA006DD002103EB840243F8041B9A42FBD17B
S214084EB0346906F1140119F01F0901EB840E1DD0A0
S214084EC00022C9F1200C0C6804FA09F4144343F8CC
S214084ED0044B51F8042B8E4522FA0CF2F3D81A60CC
S214084EE00AB108F10205FB6C7268013D53F82210FE
S214084EF00561316043F82260BDE8F883043B51F849
S214084F00042B8E4543F8042FF9D8ECE730B40B6928
S214084F1005460069C01A0FD19B0014351431194490
S214084F202B4401E09D4207D253F8044D51F8042D56
S214084F309442F7D002D3012030BC70474FF0FF30C0
S214084F40FAE700BF2DE9F84F0C69894611699246C1
S214084F50641A002C17D1890009F1140702F1140607
S214084F607B18314401E09F4265D253F8045D51F83E
S214084F70042D9542F7D067D24B46BB46D1463746F6
S214084F809A46012405E061DB002409F114070AF1BA
S214084F90140BD9F80410FFF7BBFD5D464FF0000868
S214084FA0D9F810E0DAF810303E46C4600BEB830CF4
S214084FB007EB8E0700F1140456F8049B55F8042BEB
S214084FC01FFA89F343441FFA82F8120CA3EB08036E
S214084FD0C2EB194202EB23429BB243EA0243AC45BA
S214084FE044F8043B4FEA2248E6D8B74217D9A44605
S214084FF0354655F8043B99B241440A1402EB13426D
S21408500089B241EA0243AF424CF8043B4FEA2248D1
S214085010EFD8F643374427F0030704373C44043CEC
S2140850202BB954F8043D0EF1FF3E002BF9D0C0F81A
S21408503010E0BDE8F88F0021FFF76AFD0122002383
S21408504002614361BDE8F88FB346A2E74B4609F113
S214085050140B02F11407914601249A4699E700BFFB
S214085060F0B5012183B01C46C3F30A551646FFF770
S2140850704FFDC4F3130407460DB144F4801401949D
S21408508006B302A840F8086DFFF7D4FD002830D113
S2140850909DE80C007A61002B0CBF01210221BB6140
S2140850A03961D5B9089A07EB8103A0F2324010603F
S2140850B01869FFF79FFD099BC0EB4110186038463A
S2140850C003B0F0BD01A8FFF7B5FD0122019B11460C
S2140850D020303A617B61002DE4D0A5F23343089A6C
S2140850E003441360099BC0F135001860384603B0C6
S2140850F0F0BD019BC0F12002009903FA02F20A43B0
S214085100C34001937A61C6E7002900F094802DE930
S214085110F04F0C46154683B0804605F10B06FDF7A2
S2140851201BF854F804EC162E2EF00307A4F1080911
S2140851303CD810221646B5423DD8974243DAC64BAD
S21408514009EB07009968884200F0C380436823F09B
S214085150010101444968C9074DD51EF0010F00F04A
S2140851609B8029464046FCF791FC054600283BD024
S21408517054F8043CA0F1080223F001034B449A4279
S21408518000F02B813A1F242A00F21881132A00F215
S214085190EB80034622461168196051685960926888
S2140851A09A6021464046FFF7FBFA1DE026F0070600
S2140851B0002E3246BFDA00250C232846C8F80030F1
S2140851C003B0BDE8F08F2546BB1B0F2BD9F804208B
S2140851D01DD802F001023A4309EB0701C9F804207A
S2140851E04B6843F001034B604046FCF7BBFF28467C
S2140851F003B0BDE8F08F23F00303F91891421DDBD6
S214085200C36882682546D3600F469A60DCE702F0DA
S214085210010209EB060143F001033243C9F80420F2
S2140852204F444B607B68083143F001037B6040467F
S214085230FFF7B6FAD8E71146FCF728BC1EF0010FB0
S2140852408FD154F8081CA9EB010ADAF8041021F0EB
S21408525003010B443B44934226DB5546C1688068ED
S2140852603A1FC160886055F8080FDAF80C10242A2F
S214085270C160886026D8132A40F2818021681B2ADC
S214085280CAF808106168CAF80C1000F2AD8004F17C
S21408529008000AF1100274E054F8083CA9EB030A67
S2140852A0DAF8041021F003017B189342FFF659AF91
S2140852B05546DAF80C1055F8080F3A1F242AC1602C
S2140852C08860D8D9214628461F46D146FFF7BCFB3A
S2140852D07AE7416806F1100021F0030BBB448345CA
S2140852E058DA1EF0010F7FF43CAF54F8081CA9EBFF
S2140852F0010ADAF8041021F003018B445845D3DC80
S2140853005546DAF80C1055F8080F3A1F242AC160DB
S214085310886000F28D80132A40F2878021681B2A55
S214085320CAF808106168CAF80C1000F2888004F100
S21408533008010AF110020868106048685060896819
S2140853409160ABEB06020AEB060142F00102996097
S2140853504A60DAF80430404603F001031E43CAF8F0
S2140853600460FCF7FFFE42E723681B2A03606368B5
S214085370436027D800F1080304F108020BE720462B
S2140853802A4601681F4611604168D1465160836805
S214085390936019E7ABEB060B09EB06014BF001022D
S2140853A099604A6054F8043C404603F001031E43E3
S2140853B044F8046CFCF7D6FE254618E72146FFF7A6
S2140853C043FBEEE6A368242A8360E368C36018D02C
S2140853D000F1100304F11002DDE650F8043C2546FF
S2140853E023F003031F44EFE6A168242ACAF8101026
S2140853F0E168CAF814100DD004F110000AF118027A
S214085400BFE7226900F118030261616904F1180216
S2140854104161C0E6226904F11800CAF818206169DB
S2140854200AF12002CAF81C10ABE721462A4682E792
S214085430214628460193FFF707FB019B81E7A168F1
S214085440242ACAF81010E168CAF8141006D004F125
S21408545010010AF118026EE730090720226904F1E4
S2140854601801CAF8182060690AF12002CAF81C0058
S21408547061E700BF2DE9F04F936883B09046002B94
S21408548070D082460C4617688D68086842E0A38983
S21408549013F4906F2ED06569216905EB4505A0EBDE
S2140854A0010B05EBD5750BF101006D103044A842D1
S2140854B02A4684BF05462A465B0538D51146504617
S2140854C0FCF7E4FA00283CD05A4621690190FCF71C
S2140854D07FFDA289019B22F4906242F08002A2819D
S2140854E0A5EB0B0203EB0B006561B346354623615B
S2140854F02060A2605A464946FFF7A6FAD8F8083050
S214085500A2682068551B58449E1BA5602060C8F8F2
S21408551008603EB37E683B460837002EFAD0AE4297
S214085520D3F80090AB46B2D23546B346E2E75046CB
S214085530FFF7EAFD03460028D2D121695046FFF757
S2140855402FF90C2300224FF0FF30CAF80030A38949
S21408555043F04003A381C8F80820C8F8042003B025
S214085560BDE8F08F0020C8F8040003B0BDE8F08F4F
S21408557019B1FF2A03D80A700121084670478A2302
S2140855804FF0FF310360F8E72DE9F8432C4D064647
S214085590286898460F469146FFF7F6F9294B1C6887
S2140855A0D4F84831002B3ED05A681F2A1CDC02F17A
S2140855B0010E76B1012103EB8204C4F88890D3F873
S2140855C0880191400843022EC3F88801C4F8088170
S2140855D023D00232C3F804E0286843F82270FFF7A5
S2140855E0D5F90020BDE8F883174B0BB34FF4C87005
S2140855F0FCF744FA0346D8B10020D4F848114FF017
S214085600010E586019600246C4F84831C3F888018C
S214085610C3F88C01002EDCD0CCE7D3F88C0101430C
S214085620C3F88C11D5E704F5A673C4F84831BBE770
S2140856302868FFF7ABF94FF0FF30BDE8F88300BFE6
S214085640400D07209C6308007D1A080010B502FB71
S21408565001F1FCF71BFA0446D8B150F8042C22F0E6
S2140856600302043A242A18D8132A14D900231B2A1A
S2140856700360436016D9242A8360C36011BF00F113
S21408568010020361436100F118020023136053609F
S2140856909360204610BD0246F7E70021FCF70EFD92
S2140856A0204610BD00F10802EFE700BF81F0004178
S2140856B002E000BF83F0004330B54FEA41044FEAEA
S2140856C0430594EA050F08BF90EA020F1FBF54EA85
S2140856D0000C55EA020C7FEA645C7FEA655C00F021
S2140856E0E2804FEA5454D4EB5555B8BF6D420CDDF2
S2140856F02C4480EA020281EA030382EA000083EA75
S214085700010180EA020281EA0303362D88BF30BD14
S21408571011F0004F4FEA01314FF4801C4CEA11316A
S21408572002D0404261EB410113F0004F4FEA0333C9
S2140857304CEA133302D0524263EB430394EA050F54
S21408574000F0A780A4F10104D5F1200E0DDB02FAC3
S2140857500EFC22FA05F2801841F1000103FA0EF257
S214085760801843FA05F359410EE0A5F120050EF11D
S214085770200E012A03FA0EFC28BF4CF0020C43FA4E
S21408578005F3C01851EBE37101F0004507D54FF05B
S214085790000EDCF1000C7EEB00006EEB0101B1F5AB
S2140857A0801F1BD3B1F5001F0CD349085FEA3000F1
S2140857B04FEA3C0C04F101044FEA445212F5800FFC
S2140857C080F09A80BCF1004F08BF5FEA500C50F199
S2140857D0000041EB045141EA050130BD5FEA4C0C7C
S2140857E0404141EB010111F4801FA4F10104E9D105
S2140857F091F0000F04BF01460020B1FA81F308BFFC
S2140858002033A3F10B03B3F120020CDA0C3208DDC7
S21408581002F1140CC2F10C0201FA0CF021FA02F1A2
S2140858200CE002F11402D8BFC2F1200C01FA02F112
S21408583020FA0CFCDCBF41EA0C019040E41AA2BF37
S21408584001EB0451294330BD6FEA04041F3C1CDAFF
S2140858500C340EDC04F11404C4F1200220FA04F01F
S21408586001FA02F340EA030021FA04F345EA0301C9
S21408587030BDC4F10C04C4F1200220FA02F001FA8B
S21408588004F340EA0300294630BD21FA04F029460D
S21408589030BD94F0000F83F4801306BF81F48011A6
S2140858A00134013D4EE77FEA645C18BF7FEA655C19
S2140858B029D094EA050F08BF90EA020F05D054EAEB
S2140858C0000C04BF1946104630BD91EA030F1EBFF0
